:100000006306080A0507060A7000030010060300CD
:100010000F0C02000400F30C0500FF0C2500000C7F
:100020000600000C2600010C2F002E00320C3100BF
:10003000060C320010050400A70992090507220AE0
:1000400070001B0A10061B0A1005120234009209E8
:10005000AE090507270A130235006609320C310084
:10006000FF0C2900200C5D090400FB0C2500140284
:100070004D09E902340AFF0C29000400FB0C25009D
:1000800014024D09F70C250015024D09E9023D0A3D
:10009000FF0C2E001F0C2F001B0ABF092700070CA6
:1000A0002A000A02B609470126000F0C2C00EC02B8
:1000B000570AEA02510A660000082B00FF0C2C00C8
:1000C0000400EC02600AEB025E0A0008020C280041
:1000D000080C2700F70C2500020C260007025D091A
:1000E000010C260007025D09200C260007025D09AD
:1000F000400C260007025D09FB0C2500400C260081
:1001000007025D09800C260007025D09040C260029
:1001100007025D09020C260007025D09E8026A0A6F
:1001200066000008EE020008FF0C2E00EF02000837
:100130001F0C2F00FB0C2500100C2600050C5D0980
:100140006600F1020008FF0C050006000300F20241
:10015000AC0A060C3200AE0A00000000F302B30A3B
:10016000060C33000008000000000008E201000057
:100170000208010820084008800804080808E20175
:0E01800000002108CB086B082D086E08EE0861
:0203FE00000AF3
:021FFE00FF0FD3
:00000001FF
