:080000006306080A0507060A61
:08000800700003001006030064
:080010000F0C02000400FF0CBC
:080018000500FF0C2500000C9F
:080020000600000C2600010C93
:080028002F002E00320C310004
:08003000060C3200100504006B
:0800380071095E090507220AA7
:0800400070001B0A10061B0AE8
:0800480010054D09320C3100D6
:080050000F0C440912028209A1
:080058002700FF0C2900070C32
:080060002A0004000A027909DC
:08006800470126000F0C2C00DB
:08007000EC02380AEA02310A31
:08007800E9022F0A6600FF0CEB
:080080002E001F0C2F001B0ACB
:080088002B00FF0C2C0004000A
:08009000EC02470AEB02450AED
:080098000008020C2800080C0E
:0800A0002700060C2D000D02E3
:0800A800790926000702440952
:0800B000ED02530AE802510AB7
:0800B80066000008EE020008DA
:0800C000FF0C2E00EF02000806
:0800C8001F0C2F00100C260094
:0800D000050C44096600F10271
:0800D8000008FF0C0500060002
:0800E0000300F202760A060C8F
:0800E8003200000800000000D6
:0800F0000008E2010000020813
:0800F8000108200840088008FF
:0801000004080808E2010000F8
:080108002108CB086B082D084B
:040110006E08EE087F
:0203FE00000AF3
:021FFE00FF0FD3
:00000001FF
